S01600004156523132385F4155544F5341522E737265630C
S11300004EC0000069C0000067C0000065C0000069
S113001063C0000061C000005FC000005DC000005C
S11300205BC0000059C0000057C0000055C000006C
S113003053C0000051C000004FC000004DC000007C
S11300404BC0000049C0000047C0000045C000008C
S113005043C0000041C000003FC000003DC000009C
S11300603BC0000039C0000037C0000035C00000AC
S113007033C0000031C000002FC000002DC00000BC
S11300802BC0000029C0000027C00000D202E402F7
S1130090F60208031A032C033E03500362031124DF
S11300A01FBECFEFD0E1DEBFCDBF11E0A0E0B1E0D5
S11300B0ECE9F0E100E00BBF02C007900D92AE390D
S11300C0B107D9F721E0AEE9B1E001C01D92A63B2A
S11300D0B207E1F70BD4E0C793CF1092AF0160E011
S11300E070E087E04FD2BBD360E080E098D380E03B
S11300F091E09F938F93D2D30F900F900895CF9355
S1130100E091B001F091B10188E0DF011D928A9580
S1130110E9F7E091B001F091B1011082E091B001F2
S1130120F091B1011182E091B001F091B10113821B
S11301301282148215821682C1E0C78360E082E0D5
S11301406ED389E091E09F938F93A8D3C093B501B8
S11301500F900F90CF910895C5D3BFDFD0CF0895EE
S11301600DD2892B09F098C0E091B001F091B10152
S11301708781823021F0833009F443C077C06FD384
S113018060E080E04CD380E091E09F938F9386D32E
S113019060E082E044D381E191E09F938F937ED32A
S11301A0E091B001F091B10184810F900F900F9014
S11301B00F90813051F460E070E080E0E3D1E09191
S11301C0B001F091B101148208958681813051F417
S11301D060E070E084E0D6D1E091B001F091B1012B
S11301E01682089560E080E01AD380E091E09F9346
S11301F08F9354D360E070E086E0C4D10F900F90E9
S113020008952DD360E080E00AD380E091E09F93CD
S11302108F9344D360E082E002D38DE191E09F9319
S11302208F933CD3E091B001F091B10185810F909F
S11302300F900F900F90813051F460E070E082E0F5
S1130240A1D1E091B001F091B1011582089560E06F
S113025080E0E5D280E091E09F938F931FD360E02C
S113026070E086E08FD10F900F900895F8D260E08F
S113027080E0D5D280E091E09F938F930FD360E02C
S113028082E0CDD289E091E09F938F9307D30F90C2
S11302900F900F900F90089560E070E086E072C1B7
S11302A00895CF936BD1892B29F48091B301909158
S11302B0B40139D2C0E020C0A091B301B091B4011F
S11302C09C912C2F30E0F901EE0FFF1FE20FF31F7A
S11302D0EC5DFE4F808198130EC0F901EE0FFF1FF5
S11302E02E0F3F1FF901EC5DFE4F0180F281E02DDE
S11302F0CD0101960995CF5FC330F0F231DFCF9184
S113030008958091B50181111DC060E070E080E026
S113031090E0FDD0A4D260E080E081D280E091E062
S11303209F938F93BBD260E082E079D28DE191E01C
S11303309F938F93B3D281E08093B5010F900F9078
S11303400F900F9008958BD260E080E068D28DE228
S113035091E09F938F93A2D260E082E060D28DE11E
S113036091E09F938F939AD293B180E1892783B9C7
S11303702FEF8FE39BE0215080409040E1F700C0D5
S113038000008091B2018F5F8093B2010F900F90B3
S11303900F900F90843121F41092B5011092B201A4
S11303A060E070E083E0EEC00895089508958091C0
S11303B0B50181111DC060E070E080E090E0A7D03D
S11303C04ED260E080E02BD280E091E09F938F9347
S11303D065D260E082E023D281E191E09F938F9324
S11303E05DD281E08093B5010F900F900F900F9034
S11303F0089535D260E080E012D289E391E09F93C2
S11304008F934CD260E082E00AD281E191E09F9325
S11304108F9344D293B180E2892783B92FEF8FE37E
S11304209BE0215080409040E1F700C000008091A3
S1130430B2018F5F8093B2010F900F900F900F90D5
S1130440843121F41092B5011092B20160E070E0A1
S113045085E098C00895089508958091B5018111AB
S11304601DC060E070E080E090E051D0F8D160E021
S113047080E0D5D180E091E09F938F930FD260E02C
S113048082E0CDD181E191E09F938F9307D281E007
S11304908093B5010F900F900F900F900895DFD1C6
S11304A060E080E0BCD186E491E09F938F93F6D125
S11304B060E082E0B4D181E191E09F938F93EED12B
S11304C093B180E2892783B993B180E1892783B905
S11304D02FEF8FE39BE0215080409040E1F700C074
S11304E000008091B2018F5F8093B2010F900F9052
S11304F00F900F90843121F41092B5011092B20143
S113050060E070E081E03EC0089508950895CF93BF
S1130510DF93EC01FC01EE0FFF1FCF01880F991F41
S1130520880F991F880F991FE80FF91FEA5AFE4F89
S11305300088F189E02D309719F080E090E009956A
S1130540C530D10510F0C0E0D0E0C093AF01CC0FAE
S1130550DD1FCE01880F991F880F991F880F991FDF
S1130560C80FD91FCA5ADE4FEE85FF85309719F0A0
S113057080E090E00995DF91CF9108958091AF01DB
S113058090E008950F931F93CF93C82F8B01F6DF4C
S11305904C2F50E04930510508F0A6C0FA01EA5B3F
S11305A0FF4F8CC2880F991FFC01EE0FFF1FEE0F47
S11305B0FF1FEE0FFF1F8E0F9F1FFC01EA5AFE4F15
S11305C00190F081E02D92C0880F991FFC01EE0F7D
S11305D0FF1FEE0FFF1FEE0FFF1F8E0F9F1FFC016B
S11305E0EA5AFE4F0280F381E02D80C0880F991FE4
S11305F0FC01EE0FFF1FEE0FFF1FEE0FFF1F8E0F0C
S11306009F1FFC01EA5AFE4F0480F581E02D6EC065
S1130610880F991FFC01EE0FFF1FEE0FFF1FEE0F57
S1130620FF1F8E0F9F1FFC01EA5AFE4F0680F781C1
S1130630E02D5CC0880F991FFC01EE0FFF1FEE0F29
S1130640FF1FEE0FFF1F8E0F9F1FFC01EA5AFE4F84
S11306500084F185E02D4AC0880F991FFC01EE0F3C
S1130660FF1FEE0FFF1FEE0FFF1F8E0F9F1FFC01DA
S1130670EA5AFE4F0284F385E02D38C0880F991F93
S1130680FC01EE0FFF1FEE0FFF1FEE0FFF1F8E0F7B
S11306909F1FFC01EA5AFE4F0484F585E02D26C015
S11306A0880F991FFC01EE0FFF1FEE0FFF1FEE0FC7
S11306B0FF1F8E0F9F1FFC01EA5AFE4F0684F78529
S11306C0E02D14C0880F991FFC01EE0FFF1FEE0FE1
S11306D0FF1FEE0FFF1F8E0F9F1FFC01EA5AFE4FF4
S11306E00088F189E02D02C0E0E0F0E0309711F0DD
S11306F0C8010995CF911F910F91089560E070E0B2
S113070081E090E004CF089560E070E082E090E042
S1130710FECE089560E070E083E090E0F8CE0895A6
S1130720089508950895BC0181E047C108958BB3ED
S1130730806F8BBB8AB38F708ABB8BB384608BBB97
S11307408BB384608BBB99B3907F8BB38B7F8BBB54
S11307508BB384608BBB8BB384608BBB89B32BB3AB
S11307602B7F2BBB82958F70892B08952BB32F7011
S1130770382F307F40E1849FC0011124922F932BA6
S11307809BBB9BB394609BBB9BB39B7F9BBB822B0C
S11307908BBB8BB384608BBB8BB38B7F8BBB08957C
S11307A0CF93DF931F92CDB7DEB78BB38E7F8BBB16
S11307B08BB382608BBBBBDF898389818823ACF3D5
S11307C08BB38D7F8BBB8FEF8ABB0F90DF91CF9163
S11307D008958FEF8ABB8ABB8BB38E7F8BBB8BB3A1
S11307E08D7F8BBB8BB38B7F8BBB8BB384608BBBBD
S11307F08BB380628BBB8BB38B7F8BBBD1DF88E2E7
S1130800B5DFCEDF8BB38E7F8BBB8EE0AFDFC8DF6F
S11308108BB38E7F8BBB86E0A9DFC2CF089566239E
S113082019F0613118F403C061E001C060E188236C
S113083019F0833018F403C081E001C082E0282F4E
S113084030E021503109862F90E4299F800D112436
S11308509BB39E7F9BBB815889DFA2CF08958BB346
S11308608E7F8BBB81E082DF9BCF08959BB3916029
S11308709BBB7CDF95CF08950F931F93CF938C017F
S1130880C0E002C0F3DFCF5FF801EC0FF11D8081FF
S11308908111F8CFCF911F910F910895CF93DF93DA
S11308A0CDB7DEB79E012B5F3F4FF90141915191C6
S11308B09F0161E170E08EE991E009D18EE991E058
S11308C0DBDFDF91CF91089582B1806382B983B178
S11308D08F7C83B9089540E855E260E070E081E0E0
S11308E043C00895F8DFF0DF74CF089535DC83B199
S11308F0806183B9D6DCFECFCF93C82FDB01CA0158
S113090080569940A109B109813A984BA140B1059B
S1130910D0F4440F551F661F771F440F551F661FE1
S1130920771F9A01AB01220F331F441F551F220F5B
S1130930331F441F551F60E070E880E790E09CD0AF
S11309402150310902C026E431E0CC2319F0C13032
S113095029F008C029B93093900004C0209399006D
S113096030939800CF910895882319F0813049F08D
S1130970089598E19AB996E0909395001BB8BCCF7E
S1130980089598E190939A0096E090939D001092B8
S11309909B00B2CF0895882319F0813029F00BC051
S11309A05F9BFECF8CB1089580919B008823E4F770
S11309B080919C00089580E008951F93CF93DF9366
S11309C0182FEB01812FE7DF8D3011F08A3011F4FD
S11309D0188202C08993F6CFDF91CF911F910895B9
S11309E0FC018081813559F0823581F08035A1F494
S11309F0E091B001F091B10181E087830895E09125
S1130A00B001F091B10182E087830895E091B001D3
S1130A10F091B10183E0878308959EE088E10FB6E9
S1130A20F894A89581BD0FBE91BDFFCFFC018081D4
S1130A30813371F08233B1F08033E9F4E091B00195
S1130A40F091B10187818230B1F481E0848308950B
S1130A50E091B001F091B1018781823061F481E0CD
S1130A6086830895E091B001F091B10187818330CC
S1130A7011F481E085830895A1E21A2EAA1BBB1B01
S1130A80FD010DC0AA1FBB1FEE1FFF1FA217B30756
S1130A90E407F50720F0A21BB30BE40BF50B661F6C
S1130AA0771F881F991F1A9469F760957095809530
S1130AB090959B01AC01BD01CF010895EE0FFF1F7E
S1130AC00024001C0BBE0790F691E02D09940F93AF
S1130AD01F93CF93DF93CDB7DEB72E970FB6F8945D
S1130AE0DEBF0FBECDBF8C01FA0186E08C831A8372
S1130AF0098377FF02C060E070E8CB0101979E8311
S1130B008D83A901BF01CE01019619D04D815E816B
S1130B1057FD0AC02F813885421753070CF49A01F8
S1130B20F801E20FF31F10822E960FB6F894DEBF81
S1130B300FBECDBFDF91CF911F910F9108952F92DA
S1130B403F924F925F926F927F928F929F92AF9259
S1130B50BF92CF92DF92EF92FF920F931F93CF93A6
S1130B60DF93CDB7DEB72B970FB6F894DEBF0FBE79
S1130B70CDBF6C017B018A01FC011782168283813F
S1130B8081FFBFC1CE0101963C01F6019381F701BB
S1130B9093FD859193FF81917F01882309F4ADC171
S1130BA0853239F493FD859193FF81917F018532DC
S1130BB021F4B60190E0D6D1E8CF912C212C312C30
S1130BC0FFE1F315D8F08B3279F038F4803279F004
S1130BD08332A1F4232D20611DC08D3261F0803356
S1130BE069F4232D216016C0832D8260382EE32DF5
S1130BF0E4603E2E2AC0F32DF8601DC037FC2DC0E2
S1130C0020ED280F2A3040F08E32B9F436FC75C13D
S1130C10232D2064322E19C036FE06C08AE0989E29
S1130C20200D1124922E11C0EAE02E9E200D1124D5
S1130C30222EF32DF0623F2E08C08C3621F4832D32
S1130C408068382E02C0883641F4F70193FD8591FF
S1130C5093FF81917F018111B3CF982F9F7D95548C
S1130C60933028F40C5F1F4F9FE399830DC08336A4
S1130C7031F0833771F0833509F055C020C0F80195
S1130C80808189830E5F1F4F88248394912C5301A4
S1130C9012C02801F2E04F0E511CF801A080B1806F
S1130CA036FE03C0692D70E002C06FEF7FEFC5010F
S1130CB04ED14C018201F32DFF773F2E15C0280140
S1130CC022E0420E511CF801A080B18036FE03C020
S1130CD0692D70E002C06FEF7FEFC5012DD14C018B
S1130CE0F32DF0683F2E820133FC19C0822D90E071
S1130CF088169906A0F4B60180E290E033D12A94D4
S1130D00F5CFF50137FC859137FE81915F01B6017E
S1130D1090E028D121102A9421E0821A91088114AC
S1130D20910479F7E1C0843611F0893639F5F80178
S1130D3037FE07C060817181828193810C5F1F4FF0
S1130D4008C060817181072E000C880B990B0E5F1F
S1130D501F4FF32DFF763F2E97FF09C09095809586
S1130D60709561957F4F8F4F9F4FF0683F2E2AE01B
S1130D7030E0A30133D1882E861844C0853731F47E
S1130D80232D2F7EB22E2AE030E025C0932D997FAB
S1130D90B92E8F36C1F018F4883579F0AEC080379B
S1130DA019F0883721F0A9C0E92FE061BE2EB4FE06
S1130DB00DC0FB2DF460BF2E09C034FE0AC0292FDC
S1130DC02660B22E06C028E030E005C020E130E005
S1130DD002C020E132E0F801B7FE07C060817181F2
S1130DE0828193810C5F1F4F06C06081718180E016
S1130DF090E00E5F1F4FA301F1D0882E8618FB2DC3
S1130E00FF773F2E36FE0DC0232D2E7FA22E891490
S1130E1058F434FE0BC032FC09C0832D8E7EA82EFC
S1130E2005C0B82CA32C03C0B82C01C0B92CA4FE57
S1130E300FC0FE01E80DF11D8081803321F49A2D4D
S1130E40997EA92E09C0A2FE06C0B394B39404C02F
S1130E508A2D867809F0B394A3FC10C0A0FE06C0C6
S1130E60B21480F4280C922C9B180DC0B21458F4C0
S1130E70B60180E290E076D0B394F8CFB21418F4BF
S1130E802B1802C0982C212CA4FE0FC0B60180E3BD
S1130E9090E068D0A2FE16C0A1FC03C088E790E0F1
S1130EA002C088E590E0B6010CC08A2D867851F026
S1130EB0A1FE02C08BE201C080E2A7FC8DE2B60174
S1130EC090E050D0891430F4B60180E390E04AD029
S1130ED09A94F8CF8A94F301E80DF11D8081B6014C
S1130EE090E040D08110F6CF222009F44ECEB60116
S1130EF080E290E037D02A94F7CFF601868197817B
S1130F0002C08FEF9FEF2B960FB6F894DEBF0FBE93
S1130F10CDBFDF91CF911F910F91FF90EF90DF90A4
S1130F20CF90BF90AF909F908F907F906F905F9085
S1130F304F903F902F900895FC01059061507040B0
S1130F400110D8F7809590958E0F9F1F0895FC018E
S1130F506150704001900110D8F7809590958E0FE4
S1130F609F1F08950F931F93CF93DF93FB0123815A
S1130F7021FD03C08FEF9FEF2CC022FF16C04681D6
S1130F805781248135814217530744F4A081B181EC
S1130F909D012F5F3F4F318320838C9326813781BE
S1130FA02F5F3F4F3783268314C08B01EC01FB0175
S1130FB00084F185E02D0995892BE1F6D801169678
S1130FC08D919C911797019617969C938E931697E3
S1130FD0CE01DF91CF911F910F910895FA01AA27B5
S1130FE0283051F1203181F1E8946F936E7F6E5F68
S1130FF07F4F8F4F9F4FAF4FB1E03ED0B4E03CD016
S1131000670F781F891F9A1FA11D680F791F8A1FF8
S1131010911DA11D6A0F711D811D911DA11D20D05F
S113102009F468943F912AE0269F11243019305D19
S11310303193DEF6CF010895462F4770405D41930A
S1131040B3E00FD0C9F7F6CF462F4F70405D4A3357
S113105018F0495D31FD4052419302D0A9F7EACF1F
S1131060B4E0A6959795879577956795BA95C9F74E
S113107000976105710508959B01AC010A2E069441
S11310805795479537952795BA95C9F7620F731FFA
S10F1090841F951FA01D0895F894FFCF45
S113109C5374732049444C450044454641554C54C3
S11310AC0050524F4752414D4D494E4700455854FC
S11310BC454E440030F004310D053216055374735B
S11310CC20474F204C4546540053747320474F20FF
S11310DC52494748540053747320474F2053545279
S11310EC4149474854007E030000840300008A03EE
S11310FC000090039103920300002D0200000000F5
S113110C000000004F02850286020000000000006F
S113111C810100000000A301D501D60100000000EC
S111112C000000000000D701F9012B022C0284
S9030000FC
